:020000007FD0AF
:100100000E01600ED36F020ED96F400ED76F0F0134
:100110008A6B216BF86F050EF76F000EF66F00010A
:10012000006B000100510F01F66F0800F5CF85FF4D
:10013000A3EC00F000010D0E006301D002D0002BF3
:10014000F0D7006BEED70001640E016F0A0E026F4C
:100150001E0E036F000E036308D0000E026308D06A
:10016000000E016307D00F01120003070000F2D751
:080170000207EED70107EAD7F0
:0E050000010204081020408040201008040270
:020000040030CA
:0C000000ECFF3DFF9FFFFFDFFFFFFFFF55
:00000001FF
