:020000007FD0AF
:100100000E01600ED36F020ED96F400ED76F0F0134
:100110008A6B216B888114911381F86F050EF76F3C
:10012000000EF66F0001006B046B9AEC00F0ABEC74
:1001300000F0FBD70F018DB112000001030E046324
:1001400001D002D0042B01D0046B0F018DA1FDD78B
:100150000001006B12000001000E046314D00001C6
:1001600000510F01F66F050EF76F0800F5CF85FF00
:1001700005EC01F000010D0E006301D002D0002B50
:100180001200006B1200010E046314D00001005134
:100190000F01F66F060EF76F0800F5CF85FF05EC2F
:1001A00001F000010B0E006301D002D0002B120001
:1001B000006B1200020E046314D0000100510F0105
:1001C000F66F070EF76F0800F5CF85FF05EC01F01D
:1001D0000001090E006301D002D0002B1200006B59
:1001E0001200000100510F01F66F080EF76F0800B2
:1001F000F5CF85FF05EC01F00001050E006301D08D
:1002000002D0002B1200006B12000001640E016F7F
:100210000A0E026F1E0E036F000E036308D0000E5D
:10022000026308D0000E016307D00F01120003071C
:0C0230000000F2D70207EED70107EAD762
:0E050000010204081020408040201008040270
:0C06000003060C183060C06030180C06B7
:0A070000070E1C3870E070381C0E64
:060800008142241824428D
:020000040030CA
:0C000000ECFF3DFF9FFFFFDFFFFFFFFF55
:00000001FF
