:020000007FD0AF
:100100000E01600ED36F020ED96F400ED76F0F0134
:10011000F00E886F146F888914991389888B149B4B
:10012000138B800E896F1C6F000EF86F030EF76F34
:10013000000EF66F0001006B046BAEEC00F0BFEC3C
:1001400000F0C8EC00F0D1EC00F00001090E0063F3
:1001500001D002D0002BF1D7006BEFD70F018DB982
:1001600012000001000E046301D003D0000E046FE2
:1001700002D0010E046F0F018DA9FDD712000F01EF
:100180008DBB12000001040E006FC8EC00F01200DD
:10019000000100510F01836FF66F0800F5CF84FF57
:1001A00012000001000E046303D0DBEC00F012002B
:1001B000F4EC00F012000001640E016F0A0E026FF1
:1001C0001E0E036F000E036308D0000E026308D0FA
:1001D000000E016307D00F01120003070000F2D7E1
:1001E0000207EED70107EAD70001640E016F0A0E7D
:1001F000026F0A0E036F000E036308D0000E026345
:1002000008D0000E016307D00F01120003070000A1
:0A021000F2D70207EED70107EAD784
:0A0300003F065B4F666D7D077F67C7
:020000040030CA
:0C000000ECFF3DFF9FFFFFDFFFFFFFFF55
:00000001FF
