:020000007FD0AF
:100100000E01600ED36F020ED96F400ED76F0F0134
:10011000F00E886F146F800E896F1C6F000EF86FE1
:10012000020EF76F000EF66F0001006BA3EC00F0FB
:10013000ACEC00F00001090E006301D002D0002BEE
:10014000F5D7006BF3D7000100510F01836FF66FF5
:100150000800F5CF84FF12000001640E016F0A0E43
:10016000026F1E0E036F000E036308D0000E0263C1
:1001700008D0000E016307D00F0112000307000032
:0A018000F2D70207EED70107EAD715
:0A0200003F065B4F666D7D077F67C8
:020000040030CA
:0C000000ECFF3DFF9FFFFFDFFFFFFFFF55
:00000001FF
