:020000007FD0AF
:100100000E01600ED36F020ED96F400ED76F0F0134
:10011000F00E886F146F888914991389800E896F87
:100120001C6F000EF86F020EF76F000EF66F0001E5
:10013000006B046BA9EC00F0BAEC00F0C3EC00F02B
:100140000001090E006301D002D0002BF3D7006B31
:10015000F1D70F018DB912000001000E046301D028
:1001600003D0000E046F02D0010E046F0F018DA9A1
:10017000FDD71200000100510F01836FF66F0800D8
:10018000F5CF84FF12000001000E046303D0CDEC14
:1001900000F01200E6EC00F012000001640E016FA6
:1001A0000A0E026F1E0E036F000E036308D0000ECE
:1001B000026308D0000E016307D00F01120003078D
:1001C0000000F2D70207EED70107EAD70001640E5C
:1001D000016F0A0E026F0A0E036F000E036308D050
:1001E000000E026308D0000E016307D00F01120059
:0E01F00003070000F2D70207EED70107EAD797
:0A0200003F065B4F666D7D077F67C8
:020000040030CA
:0C000000ECFF3DFF9FFFFFDFFFFFFFFF55
:00000001FF
